{
  "_format": "hh-sol-artifact-1",
  "contractName": "CrowdFunding",
  "sourceName": "contracts/CrowdFunding.sol",
  "abi": [
    {
      "inputs": [],
      "name": "campaignCount",
      "outputs": [
        {
          "internalType": "uint256",
          "name": "",
          "type": "uint256"
        }
      ],
      "stateMutability": "view",
      "type": "function"
    },
    {
      "inputs": [
        {
          "internalType": "uint256",
          "name": "",
          "type": "uint256"
        }
      ],
      "name": "campaigns",
      "outputs": [
        {
          "internalType": "address",
          "name": "owner",
          "type": "address"
        },
        {
          "internalType": "string",
          "name": "title",
          "type": "string"
        },
        {
          "internalType": "string",
          "name": "description",
          "type": "string"
        },
        {
          "internalType": "uint256",
          "name": "target",
          "type": "uint256"
        },
        {
          "internalType": "uint256",
          "name": "deadline",
          "type": "uint256"
        },
        {
          "internalType": "uint256",
          "name": "amountRaised",
          "type": "uint256"
        }
      ],
      "stateMutability": "view",
      "type": "function"
    },
    {
      "inputs": [
        {
          "internalType": "address",
          "name": "_owner",
          "type": "address"
        },
        {
          "internalType": "string",
          "name": "_title",
          "type": "string"
        },
        {
          "internalType": "string",
          "name": "_description",
          "type": "string"
        },
        {
          "internalType": "uint256",
          "name": "_target",
          "type": "uint256"
        },
        {
          "internalType": "uint256",
          "name": "_deadline",
          "type": "uint256"
        }
      ],
      "name": "createCampaign",
      "outputs": [
        {
          "internalType": "uint256",
          "name": "",
          "type": "uint256"
        }
      ],
      "stateMutability": "nonpayable",
      "type": "function"
    },
    {
      "inputs": [
        {
          "internalType": "uint256",
          "name": "_campaignId",
          "type": "uint256"
        }
      ],
      "name": "donateToCampaign",
      "outputs": [],
      "stateMutability": "payable",
      "type": "function"
    },
    {
      "inputs": [],
      "name": "getCampaigns",
      "outputs": [
        {
          "components": [
            {
              "internalType": "address",
              "name": "owner",
              "type": "address"
            },
            {
              "internalType": "string",
              "name": "title",
              "type": "string"
            },
            {
              "internalType": "string",
              "name": "description",
              "type": "string"
            },
            {
              "internalType": "uint256",
              "name": "target",
              "type": "uint256"
            },
            {
              "internalType": "uint256",
              "name": "deadline",
              "type": "uint256"
            },
            {
              "internalType": "uint256",
              "name": "amountRaised",
              "type": "uint256"
            },
            {
              "internalType": "address[]",
              "name": "donators",
              "type": "address[]"
            },
            {
              "internalType": "uint256[]",
              "name": "donations",
              "type": "uint256[]"
            }
          ],
          "internalType": "struct CrowdFunding.Campaign[]",
          "name": "",
          "type": "tuple[]"
        }
      ],
      "stateMutability": "view",
      "type": "function"
    },
    {
      "inputs": [
        {
          "internalType": "uint256",
          "name": "_campaignId",
          "type": "uint256"
        }
      ],
      "name": "getDonators",
      "outputs": [
        {
          "internalType": "address[]",
          "name": "",
          "type": "address[]"
        },
        {
          "internalType": "uint256[]",
          "name": "",
          "type": "uint256[]"
        }
      ],
      "stateMutability": "view",
      "type": "function"
    }
  ],
  "bytecode": "0x6080604052600060015534801561001557600080fd5b50610d74806100256000396000f3fe6080604052600436106100555760003560e01c8063075843c31461005a5780630fa91fa91461008d578063141961bc146100bb57806342a4fda8146100ed5780637274e30d14610102578063a6b0363314610118575b600080fd5b34801561006657600080fd5b5061007a61007536600461095b565b61013a565b6040519081526020015b60405180910390f35b34801561009957600080fd5b506100ad6100a83660046109ef565b61022a565b604051610084929190610a08565b3480156100c757600080fd5b506100db6100d63660046109ef565b6102f9565b60405161008496959493929190610ad9565b6101006100fb3660046109ef565b610448565b005b34801561010e57600080fd5b5061007a60015481565b34801561012457600080fd5b5061012d61050b565b6040516100849190610ba2565b6001546000908152602081905260408120600481015442116101a25760405162461bcd60e51b815260206004820152601e60248201527f446561646c696e65206d75737420626520696e20746865206675747572650000604482015260640160405180910390fd5b80546001600160a01b0319166001600160a01b03881617815585516101d0906001830190602089019061081f565b5084516101e6906002830190602088019061081f565b506003810184905560048101839055600060058201819055600180549161020c83610ca9565b91905055506001805461021f9190610cc4565b979650505050505050565b6000818152602081815260409182902060068101805484518185028101850190955280855260609485949293600701929091849183018282801561029757602002820191906000526020600020905b81546001600160a01b03168152600190910190602001808311610279575b50505050509150808054806020026020016040519081016040528092919081815260200182805480156102e957602002820191906000526020600020905b8154815260200190600101908083116102d5575b5050505050905091509150915091565b600060208190529081526040902080546001820180546001600160a01b03909216929161032590610cdb565b80601f016020809104026020016040519081016040528092919081815260200182805461035190610cdb565b801561039e5780601f106103735761010080835404028352916020019161039e565b820191906000526020600020905b81548152906001019060200180831161038157829003601f168201915b5050505050908060020180546103b390610cdb565b80601f01602080910402602001604051908101604052809291908181526020018280546103df90610cdb565b801561042c5780601f106104015761010080835404028352916020019161042c565b820191906000526020600020905b81548152906001019060200180831161040f57829003601f168201915b5050505050908060030154908060040154908060050154905086565b600081815260208181526040808320600681018054600180820183559186528486200180546001600160a01b0319163317905560078201805491820181558552928420349301839055805491519093916001600160a01b03169083908381818185875af1925050503d80600081146104dc576040519150601f19603f3d011682016040523d82523d6000602084013e6104e1565b606091505b50509050801561050557818360050160008282546104ff9190610d10565b90915550505b50505050565b6060600060015467ffffffffffffffff81111561052a5761052a6108b8565b6040519080825280602002602001820160405280156105ac57816020015b61059960405180610100016040528060006001600160a01b03168152602001606081526020016060815260200160008152602001600081526020016000815260200160608152602001606081525090565b8152602001906001900390816105485790505b50905060005b60015481101561081957600081815260208181526040918290208251610100810190935280546001600160a01b03168352600181018054919392849290840191906105fc90610cdb565b80601f016020809104026020016040519081016040528092919081815260200182805461062890610cdb565b80156106755780601f1061064a57610100808354040283529160200191610675565b820191906000526020600020905b81548152906001019060200180831161065857829003601f168201915b5050505050815260200160028201805461068e90610cdb565b80601f01602080910402602001604051908101604052809291908181526020018280546106ba90610cdb565b80156107075780601f106106dc57610100808354040283529160200191610707565b820191906000526020600020905b8154815290600101906020018083116106ea57829003601f168201915b505050505081526020016003820154815260200160048201548152602001600582015481526020016006820180548060200260200160405190810160405280929190818152602001828054801561078757602002820191906000526020600020905b81546001600160a01b03168152600190910190602001808311610769575b50505050508152602001600782018054806020026020016040519081016040528092919081815260200182805480156107df57602002820191906000526020600020905b8154815260200190600101908083116107cb575b5050505050815250508383815181106107fa576107fa610d28565b602002602001018190525050808061081190610ca9565b9150506105b2565b50919050565b82805461082b90610cdb565b90600052602060002090601f01602090048101928261084d5760008555610893565b82601f1061086657805160ff1916838001178555610893565b82800160010185558215610893579182015b82811115610893578251825591602001919060010190610878565b5061089f9291506108a3565b5090565b5b8082111561089f57600081556001016108a4565b634e487b7160e01b600052604160045260246000fd5b600082601f8301126108df57600080fd5b813567ffffffffffffffff808211156108fa576108fa6108b8565b604051601f8301601f19908116603f01168101908282118183101715610922576109226108b8565b8160405283815286602085880101111561093b57600080fd5b836020870160208301376000602085830101528094505050505092915050565b600080600080600060a0868803121561097357600080fd5b85356001600160a01b038116811461098a57600080fd5b9450602086013567ffffffffffffffff808211156109a757600080fd5b6109b389838a016108ce565b955060408801359150808211156109c957600080fd5b506109d6888289016108ce565b9598949750949560608101359550608001359392505050565b600060208284031215610a0157600080fd5b5035919050565b604080825283519082018190526000906020906060840190828701845b82811015610a4a5781516001600160a01b031684529284019290840190600101610a25565b5050508381038285015284518082528583019183019060005b81811015610a7f57835183529284019291840191600101610a63565b5090979650505050505050565b6000815180845260005b81811015610ab257602081850181015186830182015201610a96565b81811115610ac4576000602083870101525b50601f01601f19169290920160200192915050565b6001600160a01b038716815260c060208201819052600090610afd90830188610a8c565b8281036040840152610b0f8188610a8c565b60608401969096525050608081019290925260a0909101529392505050565b600081518084526020808501945080840160005b83811015610b675781516001600160a01b031687529582019590820190600101610b42565b509495945050505050565b600081518084526020808501945080840160005b83811015610b6757815187529582019590820190600101610b86565b60006020808301818452808551808352604092508286019150828160051b87010184880160005b83811015610c8557888303603f19018552815180516001600160a01b0316845261010088820151818a870152610c0182870182610a8c565b9150508782015185820389870152610c198282610a8c565b606084810151908801526080808501519088015260a0808501519088015260c080850151888303828a01529193509150610c538382610b2e565b9250505060e08083015192508582038187015250610c718183610b72565b968901969450505090860190600101610bc9565b509098975050505050505050565b634e487b7160e01b600052601160045260246000fd5b6000600019821415610cbd57610cbd610c93565b5060010190565b600082821015610cd657610cd6610c93565b500390565b600181811c90821680610cef57607f821691505b6020821081141561081957634e487b7160e01b600052602260045260246000fd5b60008219821115610d2357610d23610c93565b500190565b634e487b7160e01b600052603260045260246000fdfea2646970667358221220af9fcb181dc682e585a36f99511f35153815757d02e4c955060e79693388222d64736f6c63430008090033",
  "linkReferences": {},
  "deployedLinkReferences": {}
}